8=FIX.4.2|9=81|35=R|49=BuySide|56=SellSide|34=1|52=20190605-11:27:06.897|131=MyQuoteReqID-12345|7070=20110720|7071=FX-STD|146=1|55=EUR/USD|537=1|54=1|38=1000000|64=20110720|15=EUR|1=ACME|126=20110718-12:13:55|10=087|
