8=FIX.4.0|9=58|35=0|49=BuySide|56=SellSide|34=5|52=20190605-11:57:29.363|10=175|
