8=FIX.4.4|9=328|35=8|34=3|49=360T_RFQ_TEST|52=20241001-12:41:12.929|56=Boozt.TEST|57=BOOZT.API2|1=Boozt.TEST|6=0|11=example order id|14=0|15=USD|17=7i0quc-a4024-m1qfgesh-116ad|31=0|32=0|37=qk5488-a4024-m1qfgesh-116ac|38=1000|39=8|40=D|44=0|54=1|55=USD/EUR|58=No RFS found for requested order|60=20241001-12:41:12.922|64=20241001|150=8|151=1000|10=247|