8=FIX.4.0|9=67|35=0|34=5|49=BuySide|50=SubId|52=20190605-11:57:29.363|56=SellSide|10=041|