8=FIX.4.4|9=147|35=j|34=2|49=360T_RFQ_TEST|52=20240930-15:51:51.273|56=Boozt.TEST|57=BOOZT.API2|45=2|58=Missing mandatory field Account<1>|372=R|379=example|380=0|10=018|