8=FIX.4.4|9=93|35=5|34=3|49=SellSide|50=SubId|52=20190606-09:33:44.882|56=BuySide|58=Logout acknowledgement|10=177|