8=FIX.4.4|9=89|35=2|34=2|49=360T_RFQ_TEST|52=20240930-14:29:05.100|56=Boozt.TEST|57=BOOZT.API2|7=2|16=0|10=024|