8=FIX.4.2|9=172|35=R|49=BuySide|56=SellSide|34=1|52=20190605-11:27:06.897|131=MyQuoteReqID-12345|146=1|55=EUR/USD|537=1|54=1|38=1000000|64=20110720|15=EUR|1=ACME|126=20110718-12:13:55.000|10=102|