8=FIX.4.4|9=84|35=5|49=SellSide|56=BuySide|34=3|52=20190606-09:33:44.882|58=Logout acknowledgement|10=055|