8=FIX.4.2|9=98|35=A|34=1|49=BuySide|50=SubId|52=20190605-11:27:06.897|56=SellSide|98=0|108=30|141=Y|554=Password|10=181|