8=FIX.4.4|9=92|35=A|34=1|49=360T_RFQ_TEST|52=20240930-12:33:19.816|56=Boozt.TEST|57=BOOZT.API2|98=0|108=30|10=201|