8=FIX.4.4|9=92|35=A|34=1|49=360T_RFQ_TEST|52=20241001-12:41:11.681|56=Boozt.TEST|57=BOOZT.API2|98=0|108=30|10=182|