8=FIX.4.4|9=215|35=S|34=2|49=360T_RFQ_TEST|52=20241001-12:41:11.936|56=Boozt.TEST|57=BOOZT.API2|38=0|55=USD/EUR|106=MarketData|117=MD-example-000001|131=example|132=0.9031192|133=0.9031279|188=0.90305|190=0.90306|537=0|7071=FX-STD|10=044|