8=FIX.4.2|9=226|35=R|34=1|49=BuySide|50=SubId|52=20190605-11:27:06.897|56=SellSide|131=MyQuoteReqID-12345|7071=FX-STD|7072=1/1|146=1|55=EUR/USD|537=1|54=1|38=1000000|64=20110720|15=EUR|1=ACME|126=20110718-12:13:55.000|654=Foobar|588=20110721|10=233|